:1000000000308A00272800000A108A100A1182078F
:100010003F343F3406345B344F3466346D347D34C2
:1000200007347F346F3425308400831300080319AC
:1000300026280230F800F701F70B1C28F80B1B28C4
:100040009730F700F70B2228800B19280034840121
:1000500083131F308305831603170908C0398900ED
:1000600003131F129F1200300317880083128701A9
:1000700088018901FF300313A30000308316850037
:10008000860087008312A30083168800850108304C
:1000900083128500831608108312081083168810B7
:1000A00083128810831608118312081183168601A3
:1000B000A430831286000630A0002008003C0318FC
:1000C000822820080420F800A400A4090030A3001E
:1000D000831687018312240887000230A400FA30B7
:1000E000A5001320A40B6F28831608108312081490
:1000F0008316881083128810831608118312081142
:10010000A0035D280230A1002108003C0318BB2891
:1001100021080420F800A400A40983168601831294
:10012000240886000A30A2002208003C0318B928DF
:1001300022080420F800A400A4090030A3008316BC
:1001400087018312240887000230A400FA30A5003A
:100150001320A40BA62883160810831208148316F4
:100160008810831288108316081183120811A203C5
:100170009428A10384280130A1002108003C031821
:10018000F42821080420F800A400A409831686019D
:100190008312240886000430A0002008003C0318C5
:1001A000F228831608108312081083168810831211
:1001B0008814831608118312081120080420F800FF
:1001C000A400A4090030A300831687018312240829
:1001D00087000230A400FA30A5001320A40BEB28FE
:1001E000A003CD28A103BD280530A1002108003CB3
:1001F00003182D2921080420F800A400A40983165F
:1002000086018312240886000A30A0002008003CE2
:1002100003182B2920080420F800A400A4090030AA
:10022000A300831687018312240887000230A400EC
:10023000FA30A5001320A40B182983160810831286
:1002400008108316881083128810831608118312F1
:0E0250000815A0030629A103F6284A2863001A
:04400E00F22CFF3F52
:00000001FF
;PIC16F887
